:020000040800F2
:1000000018B800204502000849020008451E0008F3
:100010004D0200084F0200085102000800000000D5
:100020000000000000000000000000005302000873
:10003000550200080000000009030008A12D000877
:100040005B0200085B0200085B0200081D2D00082F
:100050005B0200085B0200085B0200085B0200080C
:100060005B0200085B0200085B020008951A0008AA
:100070005B0200085B0200085B0200085B020008EC
:100080005B0200085B0200085B0200085B020008DC
:10009000AD3B00085B0200085B0200085B02000841
:1000A0005B0200085B0200085B0200085B020008BC
:1000B0005B0200085B020008B52D00085B02000827
:1000C0005B0200085B0200085B0200085B0200089C
:1000D0005B020008D52E00085B0200085B020008E6
:1000E0005B0200085B0200085B0200085B0200087C
:1000F0005B0200085B0200085B0200085B0200086C
:100100005B0200085B020008E92D00085B020008A2
:100110005B0200085B0200085B0200085B0200084B
:100120005B0200085B0200085B0200085B0200083B
:1001300000F002F800F076F80AA090E8000C824483
:100140008344AAF10107DA4501D100F06BF8AFF260
:10015000090EBAE80F0013F0010F18BFFB1A43F0A5
:10016000010318476C3502008C3502000A444FF039
:10017000000C10F8013B13F0070408BF10F8014B06
:100180001D1108BF10F8015B641E05D010F8016B4B
:10019000641E01F8016BF9D113F0080F1EBF10F8AF
:1001A000014BAD1C0C1B09D16D1E58BF01F801CBD2
:1001B000FAD505E014F8016B01F8016B6D1EF9D555
:1001C0009142D6D37047000000230024002500266A
:1001D000103A28BF78C1FBD8520728BF30C148BFAA
:1001E0000B607047662918F04484642900F0DA81B6
:1001F000752900F0D781782900F01082632900F07A
:100200007687732900F07B87002070471FB500F0C8
:100210008DFF04000020002117F0F8FBE0601FBDF7
:1002200010B510BD01F040F81146FFF7EFFF11F0D7
:10023000A3FC01F05EF803B4FFF7F2FF03BC03F088
:100240000FFD000008480047FEE7FEE7FEE7FEE777
:10025000FEE7FEE7FEE7FEE7FEE7FEE703480449A8
:10026000024A044B704700003101000818B4002016
:1002700018B8002018B4002072B602B4EFF3118150
:1002800080F31188BFF34F8FBFF36F8F084602BC16
:1002900062B6704772B680F31188BFF34F8FBFF319
:1002A0006F8F62B6704772B630484FF0FF01017031
:1002B000002080F309882E48016881F3088802F045
:1002C00003F92C48012101702B482C490A7802704F
:1002D0002B482C490A680260106880F30988EFF304
:1002E000148040F0020080F31488BFF36F8FBDE8E4
:1002F000F04F0FBCBDE8005006BC62B6084722486C
:100300004FF080510160704772B640F22022C2F275
:100310000002116881F31188BFF34F8FBFF36F8F15
:1003200062B6EFF3098020E9F04F154D29680860A7
:10033000744602F0C9F8104810490A780270114951
:100340000A682A6044F0040E1068B0E8F04F80F3A9
:10035000098840F20002C0F2000272B682F31188EE
:10036000BFF34F8FBFF36F8F62B6704722ED00E08F
:100370001C0200202B02002028020020290200205D
:10038000440200204C02002004ED00E0704753EAD4
:10039000020C00F069802DE9F04B4FF00006002BB5
:1003A0001FBFB3FA83F503FA05F424FA05F65E409D
:1003B00012BF1643B2FA82F502FA05F4C5F1200520
:1003C0001EBF22FA05FC44EA0C04203556EA044C10
:1003D0004FEA144418BF641C4FF000084FF00009A6
:1003E000904271EB030C39D3002919BFB1FA81F7A0
:1003F00001FA07F6B0FA80F700FA07F6C7F120070E
:100400001EBF20FA07FC46EA0C062037B6FBF4FCB8
:10041000A7EB0507103F07F01F0BCBF120060CFAE6
:100420000BFB2CFA06F644BFB3460026202FA4BFD0
:100430005E464FF0000B5BEA060C08BF4FF0010B65
:1004400019EB0B09ABFB027C48EB0608C01B06FB53
:1004500002CC0BFB03CC71EB0C01C1E70B4602464F
:1004600041464846BDE8F08B13B54FF000004FF011
:100470000001AFF30080BDE81C40704710B54C1080
:1004800084EA530404D54042C1F1000138BF491E3B
:100490001B4204D55242C3F1000338BF5B1EFFF775
:1004A00076FF14F0804F04D04042C1F1000138BF04
:1004B000491E14F0004F04D05242C3F1000338BF6C
:1004C0005B1E10BD0FB4044910B503AA029800F0DA
:1004D0001BFE10BC5DF814FB380000200FB41CB5E7
:1004E000074B06AA7B4469460090059800F0DDFDA5
:1004F0000020694600F0ECFD1CBC5DF814FB000018
:10050000E90B000070B5044685690068C10601D595
:10051000302600E02026C00707D070BDD4E90121B5
:1005200030469047206A401C20626D1EF6D570BD93
:1005300070B5044685690078C00707D170BDD4E95D
:10054000012120209047206A401C20626D1EF6D5B4
:1005500070BD70B50C460546012A05D02878800686
:1005600000D5EA69002302E0012305E05B1C934209
:1005700002D2E05C0028F9D1A869E618C01AA86187
:10058000286A184428622846FFF7BCFF04E0D5E932
:10059000012114F8010B9047B442F8D32846FFF725
:1005A000C7FF70BD2DE9F04106460024106875298B
:1005B000314616A510D0AFF30080002802DA404281
:1005C00013A507E031688A0701D512A502E04907A3
:1005D00004D511A5012401E0AFF3008000210A2217
:1005E00006F1240709E0B0FBF2FCB0FBF2F302FBDA
:1005F0001C00303078541846491C0028F3D123469B
:100600002A463046BDE8F04100F0E1BA00000000A3
:100610002D0000002B0000002000000070B50446F3
:100620000D4621461068AFF300802188090502D5E8
:100630000F4A7A4402E00E4A7A440E32002104F155
:10064000240305E000F00F060009965D5E54491C86
:100650000028F7D120780023000704D5702D02D0A0
:1006600009B1022311322046BDE8704000F0AFBA54
:10067000E22702002DE9F05F894604464FF0000AA8
:10068000DFF874B1FB44C0F820A02046E168884739
:10069000002874D0252806D0D4E901219047206A8B
:1006A000401C2062F1E700265F462046E16888474B
:1006B0002028054607DB312D05D2781910F8200CCB
:1006C00008B10643F1E7B00701D526F00406C4F8E7
:1006D0001CA00027C4F818A02A2D09D0284603F032
:1006E000B8FA38B304EB8708303DC8F8185019E061
:1006F00059F8041B204604EB87029161E1688847A2
:10070000012F054618D1E069002820DA26F02006DE
:100710001DE0D8F8180000EB800005EB40003038F1
:10072000C8F818002046E1688847054603F091FAAA
:100730000028EED1012F0AD02E2D08D12046E168E5
:1007400088477F1C0546022F46F02006C4DBA069BF
:10075000002803DA404246F00106A061F00701D00C
:1007600026F010066C2D0BD0682D09D04C2D39D0F9
:100770006A2D35D0742D35D07A2D33D016E038E07F
:10078000E1682F4620468847B842054609D16C2FBC
:1007900026D04FF48060E16806432046884705462E
:1007A00004E06C2F1AD04FF4807006430DB3A5F10E
:1007B0004100192802D8203546F400664A462946E9
:1007C000204626604E46FFF70DFD80B101280BD074
:1007D000F61D26F0070000F1080956E74020E4E77F
:1007E0008020D8E70020D6E706F104094DE7284627
:1007F00052E7206ABDE8F09FB8270200401ECAB247
:1008000010F8011F8A4202D00029F9D10020704758
:1008100030B505460B462A4613F8014B12F8010B7A
:1008200008B1A042F8D01CB1002802D06D1CF1E73D
:10083000284630BD40EA010310B59B070FD1042ABA
:100840000DD310C808C9121F9C42F8D020BA19BA9B
:10085000884201D9012010BD4FF0FF3010BD1AB100
:10086000D30703D0521C07E0002010BD10F8013B55
:1008700011F8014B1B1B07D110F8013B11F8014B7C
:100880001B1B01D1921EF1D1184610BD40EA010395
:10089000024630B59B0710D14FF0013400E008C28A
:1008A00008C91D1B9D4315EAC41FF8D013F0FF01B2
:1008B00002F8011B0DD01B0AF8E711F8013B002BD1
:1008C00002F8013B05D011F8013B002B02F8013B77
:1008D000F3D130BD10B5431C02E010F8011B71B11B
:1008E0008107FAD14FF0013202C88C1A8C4314EA06
:1008F000C211F9D0C01A0A0603D0C01E10BDC01A1A
:1009000010BD0A0401D0801E10BD0902FCD0401E9B
:1009100010BD421E12F8013F002BFBD111F8013B24
:10092000002B02F8013BF9D17047032A40F23080D6
:1009300010F0030C00F0158011F8013BBCF1020F20
:10094000624498BF11F801CB00F8013B38BF11F8A1
:10095000013BA2F1040298BF00F801CB38BF00F8B8
:10096000013B11F0030300F02580083AC0F0088035
:1009700051F8043B083A51F804CBA0E80810F5E719
:10098000121D5CBF51F8043B40F8043BAFF30080FC
:10099000D20724BF11F8013B11F801CB48BF11F871
:1009A000012B24BF00F8013B00F801CB48BF00F841
:1009B000012B704710B5203AC0F00B80B1E81850F9
:1009C000203AA0E81850B1E81850A0E81850BFF439
:1009D000F5AF5FEA027C24BFB1E81850A0E81850D8
:1009E00044BF18C918C0BDE810405FEA827C24BF2C
:1009F00051F8043B40F8043B08BF7047D20728BFBA
:100A000031F8023B48BF11F8012B28BF20F8023B08
:100A100048BF00F8012B704702F0FF0343EA0322AE
:100A200042EA024200F002B84FF000020429C0F08E
:100A3000128010F0030C00F01B80CCF1040CBCF110
:100A4000020F18BF00F8012BA8BF20F8022BA1EB62
:100A50000C0100F00DB85FEAC17C24BF00F8012B47
:100A600000F8012B48BF00F8012B70474FF000023F
:100A700000B5134694469646203922BFA0E80C5094
:100A8000A0E80C50B1F12001BFF4F7AF090728BF6F
:100A9000A0E80C5048BF0CC05DF804EB890028BFEB
:100AA00040F8042B08BF704748BF20F8022B11F014
:100AB000804F18BF00F8012B704700004FF0013C39
:100AC00050F8042B51F8043B9A4221D1A2EB0C03BD
:100AD000934313EACC1317D150F8042B51F8043B7D
:100AE0009A4215D1A2EB0C03934313EACC130BD11A
:100AF00050F8042B51F8043B9A4209D1A2EB0C03A5
:100B0000934313EACC13DBD04FF00000704700BFD3
:100B1000D01A01BAB1FA81F101F0180122FA01F0FC
:100B2000CB40C1F12001DBB2C0B2C01A2CFA01F3F4
:100B3000D11A914311EAC311E6D17047704770474B
:100B40007047704730B5B0F10A024FEA900E71F16C
:100B500000034EEA817EB0EB0E0061EB91014FEA9B
:100B6000101E4EEA017E10EB0E0041EB11114FEA10
:100B7000102E4EEA016E10EB0E0041EB11214FEAF0
:100B8000104E4EEA014E10EB0E0041EB11414018A1
:100B900041F100014FEAD00040EA41704FEAD10133
:100BA00010EB80054FEA810444EA907444EB0104A1
:100BB0006D1944EB0404521BA3414FF0000348BFDE
:100BC0000A3200D530BD401C41F1000130BD2DE995
:100BD000F0470D4699469246044600F12408016804
:100BE000880604D5E06921F01001216000E00120B1
:100BF000A84201DD471B00E00027A1697A1902EB3A
:100C00000900081AA0612078C00602D42046FFF728
:100C100079FC002608E0D4E901211AF80600904783
:100C2000206A401C761C20624E45F4DB2078C0060A
:100C30000AD52046FFF766FC06E0D4E90121302002
:100C40009047206A401C2062381EA7F10107F4DC9F
:100C500007E0D4E9012118F805009047206A401CFC
:100C60002062281EA5F10105F3DC2046FFF760FC99
:100C70002078000602D50220BDE8F0870120FBE7BE
:100C800070472DE9FF4F0C461E464FF0FF378BB0E3
:100C9000D2E90001DDF860800A908A46C1F30A5566
:100CA00005B93D46002108464FF00000BAF1000F9B
:100CB00000F4400005DA00EB80004FF4400101EA47
:100CC00050004FEA9059B9F1010F00DDB9460A987A
:100CD00050EA4A000ED044F61050A5F2FF354543C5
:100CE0002F14B8F1000F1ED07542291E1EDDC9F168
:100CF00000021CE0B8F1010F4FF0000001D03021DC
:100D000003E0F24305E02154401CB042FBDB3046D7
:100D10000022002121540B99C1F80880C1E900206C
:100D20000FB0BDE8F08FBD1B6D1CDEE74A4600DA50
:100D3000694206A800F03EFA06AB93E8070003AB51
:100D400083E8070050460A9900F0DCFA8DE80700B6
:100D5000A0F500501F3800900398002D0ADD42F2E4
:100D60001F014A460844002303A90390684600F087
:100D700045FD09E0A0F500504A461F38002303A9AD
:100D80000390684600F04FFD8DE807000004000C5A
:100D900003D04FF0FF30410800E01046B8F1000FDB
:100DA00003D00022009215461EE0751E05D4FFF701
:100DB000C9FE303262556D1EF9D5B3460122084393
:100DC00002D000227F1C04E02078302801D10022CC
:100DD0007F1E002A099784D01DE0112D07DAFFF746
:100DE000B1FE303262556D1C50EA0102F5D1084364
:100DF00002D00098C8B10EE00021681E05E0235C17
:100E0000625C63542254401E491C8142F7DBAB46AE
:100E1000A81B401E0990002004F80B000B98099AAB
:100E2000C0F80880C0E9002B7AE711264FF00008CF
:100E300057E72DE9F04F88460446D21D22F00701FE
:100E400091B0D1E90001CDE90A0102F0EEFE0246BF
:100E50000B98C00F01D02D2007E02068810701D535
:100E60002B2002E0202101EAC000032A099001D0D2
:100E7000072A05DB03464146204600F05BF90BE1FB
:100E80002078800601D5E06900E00620B8F1650F02
:100E9000814606D0B8F1660F18D0B8F1670F70D14F
:100EA00031E00020B9F1110F009001DB112301E0C6
:100EB00009F101030AAA01A90CA8FFF7E2FEDDE986
:100EC0000C70002609F10105834647E001204B46DE
:100ED00000904FF000470AAA01A90CA8FFF7D1FE25
:100EE000DDE90DB00C995D46002610B909F101004D
:100EF0000D18B9EB050003D4C0F1FF3609F1010567
:100F0000A5EB09002BE0B9F1010F01DA4FF001095F
:100F10000020B9F1110F0090484601DD112300E0D7
:100F200003460AAA01A90CA8FFF7ABFEDDE90C7085
:100F30004D4600268346207800070AD4AB4500DAE8
:100F40005D4601A8012D04DD411911F8011C30296D
:100F500007D04F4502DA17F1040F04DA0120824668
:100F60000FE06D1EEEE7002F02DCED1B3E4403E0B8
:100F7000781CA84200DD7D1CB81B00F1010A4FF06F
:100F800000472078000703D4AA4501DB4FF0FF3A61
:100F90000021B7F1004F0DF143088DF8431024D024
:100FA00002202B23002F01DA7F422D230A21021E6B
:100FB000A0F1010000DC5FB197FBF1FC97FBF1F2BF
:100FC00001FB1C7C17460CF1300C08F801CDEEE754
:100FD000A8F1010003702188090501D5452100E031
:100FE0006521A0F1010800F8011C09980FA9A1EBE7
:100FF0000807FF1D00B10120411901EBEA70A1694A
:101000003844081A401EA0612078C00602D4204649
:10101000FFF778FA099828B1D4E901219047206AAE
:10102000401C20622078C00622D52046FFF76AFACD
:101030001EE0002E04DBB34502DD01A8805D00E068
:101040003020D4E901219047206A401C2062761CA0
:10105000AAF101005FEA000A0AD100F067F8C0684F
:101060000168405CD4E901219047206A401C20625D
:10107000281EA5F10105DCDC07E0D4E9012118F800
:10108000010B9047206A401C2062381EA7F101071F
:10109000F3DC2046FFF74CFA032011B041E60000D4
:1010A00001694A1C02610878704700B58FB0CDE92C
:1010B00001310021059105497944CDE9031011461C
:1010C0006846FFF7D7FA0FB000BD0000E5FFFFFF4D
:1010D0000A6802F8010B0A60704710B5436913B142
:1010E000AFF3008001E0FFF734FA012010BD127861
:1010F00000F124010A7000224A700122EDE7116814
:101100004FF0FF32E9E70000074B70B50D467B4416
:10111000FFF7CBFF0446284600F0BEF810B14FF0B1
:10112000FF3070BD204670BD279200000048704718
:10113000D8B300202DE9F0411F460446032601687C
:10114000072A01F4006004DB08B116A505E016A526
:1011500003E008B115A500E015A521F010002060FE
:10116000A069C01EA0610FB1401EA0612046FFF71C
:10117000C9F94FB1D4E9012138469047206A401C93
:101180002062C01C206206E0206AFAE7D4E901214F
:1011900015F8010B9047761EF8D22046FFF7C8F9E4
:1011A000BDE8F0814E414E006E616E00494E460032
:1011B000696E66002DE9F047814616468AB03548CB
:1011C00078440DC88DE80D0032487844801C03AC8B
:1011D0000DC884E80D0041F69B300844372190FB90
:1011E000F1F290FBF1F5A5F1800501FB12041B3C27
:1011F00002D56442012000E00020DFF898A080467C
:101200000027FA44AAF1BE0A0EE0E0070AD03246EF
:10121000684607EB470101230AEB810100F003FB5D
:101220008DE8070064107F1C002CEED1194F7F441D
:10123000AE3F19E0E80715D007EB04100DF1180ACE
:1012400090E80E008AE80E00C068F04201D19819BB
:1012500008903246012306A903A800F0E4FA03AB84
:1012600083E807006D10641C002DE3D14FF00103EB
:1012700032466946B8F1000F03A802D000F0BEFA6A
:1012800001E000F0D0FAC9E90001C9F808200AB06D
:10129000BDE8F0870C1D0200007B00F08000704765
:1012A00000487047B8B300207546FFF7F9FFAE4617
:1012B00005006946534620F00700854618B020B562
:1012C000FEF7CCFFBDE820404FF000064FF00007CE
:1012D0004FF000084FF0000B21F00701AC46ACE8DE
:1012E000C009ACE8C009ACE8C009ACE8C0098D464B
:1012F000704710B50446AFF300802046BDE81040AB
:10130000FEF799BF5FEA400C08BF91F0000F4FEA6B
:101310008C234FEAC12243EA51514FEA1C5018BFB7
:1013200000F5F0404FEA300018BF41F000415FEA9D
:101330006C5C00F02980BCF1FF3F08BF40F08040AA
:101340007047130C06BF12044FF0100C4FF0000C46
:10135000130E04BF12020CF1080C130F04BF12018C
:101360000CF1040C930F04BF92000CF1020CD30F8C
:1013700004BF52000CF1010C11464FF00002A0F125
:101380001F00A0EB0C00704711F0004F08BF704722
:1013900031F000413FF4D5AF0B0C06BF09044FF00C
:1013A000100C4FF0000C0B0E04BF09020CF1080CDE
:1013B0000B0F04BF09010CF1040C8B0F04BF890053
:1013C0000CF1020CCB0F04BF49000CF1010CCCF165
:1013D0002003A0EB0C0022FA03F302FA0CF241EA1C
:1013E000030100F10100704720F07F4C80EA030008
:1013F00023F07F47ACEB070303F57C5300F000407C
:1014000003F1FF032DE980494FEA154B09B44FEA78
:10141000144325EA0B4E24EA03480FF2042606EB98
:10142000132749083E785FEA320203FB0667C7F5D7
:10143000000707FB06F64FEA54374FEAD64606F197
:10144000020607FB066CCCF1005C4FEA1C472CEA55
:10145000074C07FB06F40CFB06F504EB15464FEAB8
:10146000961634BF00204FF000404FEAD13706FBFC
:1014700007FC4FEA1C4C0CFB0BF7D21B03FB0CF7D1
:1014800061EB07010CFB0EF7B0EB074072EB174264
:101490000CFB08F734BFA2EB0742B2EB074261EB4B
:1014A00017414FEA0C444FEA910706FB07FC4FEA4D
:1014B0001C4C0CFB0BF7B0EBC74072EB573203FB35
:1014C0000CF734BFA2EBC742B2EBC74261EB573116
:1014D0000CFB0EF7B0EBC70072EB57720CFB08F772
:1014E00034BFA2EBC702B2EBC70261EB5771039F97
:1014F0004FEA816141EA921104EBCC044FEAD13703
:101500004FEA826206FB07FC42EA90124FEA8060D3
:101510004FEA1C4C0CFB0BF7D21B03FB0CF761EBE7
:1015200007010CFB0EF7B0EB074072EB17420CFB08
:1015300008F734BFA2EB0742B2EB074261EB174159
:101540004FEA8C554FEA910704EB9C2406FB07FCFD
:101550004FEA1C4C0CFB0BF7B0EBC74072EB573259
:1015600003FB0CF734BFA2EBC742B2EBC74261EBFF
:1015700057310CFB0EF7B0EBC70072EB57720CFB48
:1015800008F734BFA2EBC702B2EBC70261EB577199
:1015900015EB4C254FEA816141EA92114FEA8262D4
:1015A0004FEAD13742EA901206FB07FC44F10004EF
:1015B0004FEA80604FEA1C4C0CFB0BF7D21B03FB7D
:1015C0000CF761EB07010CFB0EF7B0EB074072EB79
:1015D00017420CFB08F734BFA2EB0742B2EB0742FD
:1015E00061EB174115EB1C154FEA813141EA92413D
:1015F0004FEA823242EA90424FEA80304FEA0C765C
:1016000044F1000448EA03434EEA0B484FF0000E51
:10161000B2EB080C71EB030724BF624639464EEB70
:101620000E0E4FF0000B0018524149414BEB0B0BD3
:10163000B2EB080C71EB03077BF1000B24BF624691
:1016400039464EEB0E0E4FF0000B00185241494147
:101650004BEB0B0BB2EB080C71EB03077BF1000BB0
:1016600024BF624639464EEB0E0E51EA020718BF00
:1016700046F0010616EB0E7655F1000254F100011A
:1016800003D5BDE88901BDE80088BDE88901BDE852
:101690000048B619524141EB0101A3F10103704723
:1016A00080807F7E7D7C7B7A79787776767574739F
:1016B000727171706F6E6E6D6C6C6B6A6A6968685E
:1016C000676666656464636362616160605F5F5EF4
:1016D0005E5D5D5C5C5B5B5A5A595958585757566A
:1016E00056555555545453535252525151505050CF
:1016F0004F4F4F4E4E4D4D4D4C4C4C4B4B4B4A4A21
:101700004A49494948484847474747464646454564
:10171000454444444443434343424242424141419D
:10172000002B9C4630D477002BD01CB54FEA3707EE
:1017300003B44FF010004FF01001BAF1000F06D0C3
:10174000BCF1000FDCBF40F0080040F008014FF092
:1017500000000FBCBDE810400BF1010BBBF1010F05
:1017600008BF5FEA170722BF12F1010211F1010160
:101770004FF0004143F1000300F0004043EA000055
:101780007047F9D35708D0E746EA064613F1400FF1
:101790004FEA16461FDD13F1200FDFBF16430A463E
:1017A000002120335B42BED0C3F1200746EA064643
:1017B00002FA07F74FEA164646EA0706C3F1200782
:1017C00022FA03F201FA07F721FA03F14FF00003BE
:1017D00042EA0702A7E746EA020646EA06464FEA59
:1017E000164646EA0106BCBF46EA0646360C4FF0EE
:1017F00000034FF000024FF0000194E72DE9804C08
:101800009A46934670B491E8380007C831EA400C14
:1018100048BF34EA430C03D5FFF7E6FDFFF780FF2E
:10182000F0BCBDE8008C2DE9804C9A46934670B41C
:1018300091E8380007C810F0804F08BF13F0804FC0
:1018400003D100F005F8FFF76BFFF0BCBDE8008C9A
:1018500020F07F4780EA030023F07F4C07EB0C0366
:10186000A3F57C5300F00040A3F1FE0392F0000FBB
:1018700000F0B38095F0000F00F077802DE901496A
:101880004FEA11404FEA144621EA004800FB06FCEB
:1018900024EA064708FB06F607FB08F800FB07F7F3
:1018A00018EB06484CEB164C4FEA124B18EB074866
:1018B0004FEA15464CEB174022EA0B4E0BFB06FC99
:1018C00025EA06470EFB06F607FB0EFE0BFB07F7A5
:1018D0001EEB064E4CEB164C4FF000061EEB074E6F
:1018E0004CEB174B18EB0B0840F1000018EB0E0BFC
:1018F00058EB000840F100008F1A4FF000013CBF88
:10190000C943661B14BFB5EB040C00213CBFC9439F
:10191000F61B4FEA17444EEA8E0E27EA04454FEABB
:101920001C4704FB07622CEA074C05FB07F70CFB7E
:1019300005F604FB0CFC16EB074642EB174216EBD0
:101940000C4642EB1C421BEB060658EB02024141DF
:1019500046EA9E0601D5BDE80189B619524141EB20
:101960000101A3F10103BDE801894FEA14454FEAE3
:10197000114724EA054621EA074C05FB07F406FB5C
:1019800007F70CFB06F105FB0CFC11EB074144EBE0
:1019900017444FEA124711EB0C4144EB1C4422EA76
:1019A000074C05FB07F206FB07F70CFB06F605FBE9
:1019B0000CFC16EB074642EB174216EB0C4642EBCB
:1019C0001C456A1854F1000148BF7047B6195241CE
:1019D00041EB0101A3F10103704795F0000F37D0EF
:1019E0004FEA11424FEA144721EA024624EA074C23
:1019F00002FB07F106FB07F70CFB06F402FB0CFCED
:101A000014EB074441EB17414FEA154714EB0C4424
:101A100041EB1C4125EA074C02FB07F506FB07F7E3
:101A20000CFB06F602FB0CFC16EB074645EB1745D4
:101A300016EB0C4645EB1C42121951F1000148BF50
:101A40007047B619524141EB0101A3F10103704700
:101A50004FEA14454FEA114724EA054621EA074CAC
:101A600005FB07F106FB07F70CFB06F24FF000063B
:101A700005FB0CFC12EB074241EB174112EB0C4249
:101A800051EB1C4148BF7047921841EB0101A3F193
:101A90000103704705480168890706D5044A0121FA
:101AA0001170416841F0020141607047000002403E
:101AB0004A00002000EB4112D0F86802D26B01F01E
:101AC000FBBA00EB4112D0F86802D2F83C2101F0D9
:101AD00056BB70B5044601F00F006268904201D910
:101AE000012070BD0B0601F0070004EB40114FF020
:101AF00001024FF0000503D581F82920283103E0C9
:101B000081F8295101F594718D70087094F82802BC
:101B1000012808D084F82822206801F025FF84F8E5
:101B20002852002070BD022070BD2DE9F04104460E
:101B30000F0601F0070004EB40114FF001064FF0D3
:101B4000000503D581F82960283103E081F8295187
:101B500001F5947108700A61CB704A7802B1C881AE
:101B6000022B00D10D7194F82802012809D084F8C5
:101B70002862206801F0AEFD284684F82852BDE8AE
:101B8000F0810220FBE770B50D4601F0070400EB81
:101B90004411C1E94F230022C1F8442181F82921D1
:101BA00081F8284101F594716A07006801F02FFF60
:101BB000002070BD70B504460D4601F00700616855
:101BC000884201D9012070BD29064FF000064FF070
:101BD000010205D504EB401181F82920283105E0E8
:101BE00004EB451181F8296101F594718A70087040
:101BF00094F82802012807D084F82822206801F0F0
:101C0000EDFE680702D006E0022070BD04F50C71FD
:101C1000206801F0A7FE84F82862002070BD70B52E
:101C20000D4601F0070400EB4411C1E90F23002227
:101C30004A64012281F8292001F8284F6A070068C8
:101C400001F0E5FE002070BD10B50446006801F00B
:101C5000BBFF000402D5204600F007FF206801F01A
:101C6000B3FF40050CD5206830F8441F21F4806193
:101C70000180204600F074F80021204600F0A8F80A
:101C8000206801F0A1FF400405D5206830F8441F0A
:101C900021F480410180206801F096FF800405D581
:101CA000206830F8441F21F400510180206801F0C1
:101CB0008BFFC00414D5206830F8401F21F00401C8
:101CC0000180206830F8401F21F008010180204683
:101CD00000F064F8206830F8441F21F4805101803E
:101CE000206801F071FF00051FD5206830F8401F03
:101CF00041F008010180206830F8441F21F40061A0
:101D00000180206830F8401F41F004010180206804
:101D100001F05AFFC00405D5206830F8441F21F4B3
:101D200080510180204600F06FF8206801F04CFFE0
:101D3000800508D5206830F8441F21F40071018027
:101D4000204600F041F8206801F03EFFC00505D5AF
:101D5000206830F8441F21F48071018010BD00001C
:101D600010B5044606A0FEF7ADFB0121D4F86802C9
:101D700001F0A3FAD4F86802BDE8104001F05FBAA0
:101D800055534220446576696365204C69627261EF
:101D9000727920205B46535D0D0A000010B50446A1
:101DA00004A0FEF78FFBD4F86802BDE8104001F0F4
:101DB0006EBA000044657669636520526573756D7F
:101DC00065640D0A00000000D0F8680201F069BAED
:101DD00010B5044690F8280201280BD0012084F8A1
:101DE000280284F82410206801F006FF002084F8FF
:101DF000280210BD022010BDD0F8682200F50C7139
:101E0000104601F069BA000010B5064A00210446E8
:101E1000117005A0FEF756FBD4F86802BDE810402B
:101E200001F08EBA8002002044657669636520491E
:101E30006E2073757370656E64206D6F64652E0D12
:101E40000A0000002DE9F041154801250024016831
:101E500014A0FEF737FB1248001D016814A0FEF71E
:101E600031FB0F480830016814A0FEF72BFB0C482B
:101E70001430016814A0FEF725FB164F164E641CA3
:101E800085F00105E4B22A460421384612F05DFCD3
:101E90000020401CB042FCD3052CF0D3BDE8F081FB
:101EA00028ED00E0434653523A2538580D0A000009
:101EB000484653523A2538580D0A000044465352BA
:101EC0003A2538580D0A0000414653523A253858F1
:101ED0000D0A000000140140FFFF1F0070B586B01E
:101EE00000F062F800F014FC224A002420469471AD
:101EF00002F134010C54401CC0B20828FAD314710A
:101F000054719462146200F013FC00F0D5FB00F0F1
:101F10009FFB00F04FFC40261748CDE901064FF625
:101F2000FF70154A009003253F23FC32002113481F
:101F3000CDE9034500F0F4F805AA11A13F2000F017
:101F4000DFF91348CDE901064FF6FE700A4A00900A
:101F50003E23121F00210F48CDE9034500F0E0F8B1
:101F600005AA0DA13E2000F0CBF906B0BDE87040F7
:101F700000F030B824020020E0AC00205D29000809
:101F800075432F4F532D49492049646C650000006B
:101F9000E0AB00209129000875432F4F532D49498C
:101FA000205374617400000007484FF480710022D0
:101FB00004C0491EFCD10548054920F0070008600F
:101FC000102048607047000078A6002078AA002002
:101FD0001C020020704700000449C879012804D180
:101FE0008878FF2801D2401C8870704724020020A6
:101FF00070B5144CE079012823D11020FEF73CF98C
:10200000A178054621B1491E11F0FF00A07013D13F
:10201000E07888B900F016FC0B49607951F820107F
:10202000A1622279904207D0886B401C8863E068E7
:10203000401CE060FEF763F92846BDE87040FEF7FB
:1020400029B970BD24020020E0AD002010B5094C74
:10205000E07901280DD11020FEF70EF9A17821B901
:10206000E178FF2901D2491CE170BDE81040FEF77C
:1020700011B910BD2402002010B50D4CE0790128E3
:1020800015D11020FEF7F8F8A17831B9E17821B127
:10209000491E11F0FF01E17003D0BDE81040FEF7CA
:1020A000F9B8FEF7F7F8BDE8104000F0A5BB10BD89
:1020B0002402002010B5094CE07900280CD100F072
:1020C000C1FB60790649207151F82000A0622062AE
:1020D000BDE81040FEF7E7B810BD00002402002064
:1020E000E0AD002010B5022000F0F0F91020FEF75E
:1020F000C3F8094C0021E161FEF7CCF8642000F040
:10210000E5F91020FEF7B8F8E1696161012161701D
:10211000BDE81040FEF7BEB8240200207047000062
:102120002DE9FF4F83B01C46DDE91386DDE91197E9
:1021300092468B461020FEF79FF81E49097829B178
:10214000FEF7A8F83C2007B0BDE8F08F1A4D55F80F
:10215000241019B1FEF79EF82820F4E7012145F874
:102160002410FEF797F832463946484600F072FCD4
:10217000334652465946039800F024F90097CDE9BA
:10218000018601464A462046109B00F06BFB060084
:1021900009D01020FEF770F8002145F82410FEF752
:1021A00079F83046CFE7054800780128F9D100F0EA
:1021B00023FBF6E726020020E0AD00202B020020E2
:1021C000704700002DE9F04705464148007810B1FE
:1021D0004020BDE8F0873F2D06D01020FEF74CF8D8
:1021E0000646FF2D02D005E03E20F2E739480068A0
:1021F00090F83250DFF8E09059F825405CB1012C9E
:102200000ED094F83410354A94F83530505C984329
:1022100050540AD00FE03046FEF73CF84320D8E790
:102220003046FEF737F83D20D3E72D4894F83620A6
:10223000017891430170E16911B1204600F0F5F990
:10224000606A08B100F028FA4FF00008C4F82C804A
:10225000244F84F8308084F831803878FF2801D208
:10226000401C38703046FEF715F800F0DDF91020FC
:10227000FEF702F80646387808B1401E387020464E
:1022800000F03CF818490878401E087049F825808D
:10229000A069414690B161694161D4E9050181615C
:1022A000124801686161046011A0E0643046FDF7E6
:1022B000F1FF10480078012806D007E060698161CD
:1022C0000D4960690860EBE700F096FA002080E7AE
:1022D0002602002044020020E0AD00205802002029
:1022E0002A020020270200202C02002048020020A1
:1022F0003F0000002B020020500200207047704772
:1023000070B5054610480E461446007810B11220EC
:10231000107070BD1020FDF7AFFFFF2D03D10B49EA
:10232000096891F832500A4951F8252043253AB1FD
:10233000012A05D0D664FDF7ADFF0020207070BDE6
:10234000FDF7A8FF257070BD260200204402002082
:10235000E0AD0020704770472DE9F04104460020B1
:10236000086048600E461020FDF786FFFF2C03D161
:102370001249096891F83240114951F8241051B1BD
:10238000012908D00A7CD2070AD0D1E902570024DB
:10239000FDF780FF09E0FDF77DFF4320BDE8F081F8
:1023A000FDF778FF4520F9E7641C01CD0028FBD03C
:1023B000381BC6E900400020F0E70000440200207E
:1023C000E0AD0020121D22F007024FF0807342E9B9
:1023D0000203174842F80C0C4FF0123042F8100C70
:1023E0004FF0033042F8140D4FF0023042F8040D64
:1023F0004310A2F1080060E808136FF00201C16108
:102400004FF011318161190141614FF009310161D2
:10241000D900C1604FF0073181604FF00631416053
:102420004FF0053140F80419990001607047000031
:102430007929000870B504461020FDF71DFF0146FC
:102440001D48FF2C006805D090F83200A04204D14E
:10245000012503E090F83240FAE70025174850F8CC
:10246000240058B101280ED090F83420144C90F874
:102470003560A35CB343A3540AD00FE00846FDF7D0
:1024800009FF482070BD0846FDF704FF432070BDDA
:102490000C4A90F836401378A343137010F8302F8D
:1024A00042F0080202700846FDF7F4FE0DB100F09C
:1024B000A3F9002070BD000044020020E0AD002020
:1024C000580200202A0200207047000070B5044620
:1024D00013480078002822D11248007800281ED125
:1024E000002C1CD01020FDF7C7FE03460E480F4DF0
:1024F000016891F8342091F83560A85CB043A85485
:1025000005D10B4891F836500278AA43027018465C
:10251000CC62FDF7BFFEBDE8704000F06DB970BD44
:10252000260200202702002044020020580200203A
:102530002A0200202DE9F04100F04EF81020FDF7AE
:102540009BFE244D296B491C2963FDF7A3FEE87906
:1025500001283CD1687A0126002720B1012836D015
:10256000022802D06F72EC6A2DE06E72FBE7102039
:10257000FDF782FEE16A19B3491EE16220D194F8A9
:10258000301011F0370F06D001F0C80184F8301078
:1025900084F8316001E084F8317094F83010090754
:1025A0000ED494F83610AA790A4B1143A97194F805
:1025B0003410343394F835C05A5C42EA0C025A5451
:1025C0006469FDF767FE94F832003F28CFD1BDE87B
:1025D000F081000024020020704710B51020FDF7A4
:1025E0004BFE0446FFF7F8FC2046FDF753FEFFF7CD
:1025F000A1FFBDE81040FFF7FBBC00004FF0E02159
:10260000401E4861074A106820F07F4040F080502B
:102610001060086940F005000861086940F0020098
:102620000861704720ED00E0704710B590F8342045
:1026300090F835408B18DA7AA243DA7204D18A7A9C
:1026400090F836309A438A720021C16110BD0000B3
:1026500010B550210D4800F0A3F800200B4B0446A4
:10266000411C03EB00108AB203EB021204704260BB
:1026700007A2C26088B20428F2D303EB001004A1C1
:1026800004704460C1600348036010BDD0B20020F4
:102690003F00000060020020D0E9001200232AB1B0
:1026A000116001B14A60806843627047C2680029C6
:1026B0005160F8D04B60F6E710B54FF4B471114893
:1026C00000F06EF800200F4B0446411C0A4600EB58
:1026D000400089B203EBC00001EB410103EBC101F3
:1026E0000470416008A1416190B20E28EDD300EB67
:1026F000400003EBC00004A1047044604161034842
:10270000036110BD78AA00203F00000024020020D1
:102710000648002101638170C1700172C171C160FE
:10272000C161816141614170817270472402002062
:1027300000B54FF47C71164800F032F84FF4807108
:10274000144800F02DF8124B0020411C0A46C9B273
:10275000C0EBC00000EB4000C1EBC10103EB800007
:1027600001EB410103EB810141610B49C164D0B22E
:102770000B28EAD3C0EBC00000EB400003EB800065
:10278000054A0021C264416104484362C16200BD40
:10279000E0AE0020E0AD0020082700082402002061
:1027A000002203E0491E00F8012B89B20029F9D16B
:1027B0007047000010B578210D48FFF7F1FF0C4B72
:1027C0000020411C0A4689B200EB400001EB4101A8
:1027D00003EBC10143F8301090B20428F1D300EBB1
:1027E0004000002143F830100248036010BD000093
:1027F00020B300206402002070B51020FDF73CFDDE
:102800000E4C0546A07898B9E07888B900F01AF81F
:102810000B48627950F82210A1622079824207D0D9
:10282000886B401C8863E068401CE060FDF767FD32
:102830002846BDE87040FDF72DBD000024020020B1
:10284000E0AD00200649054A01F134038879105CA7
:102850001B5CD25C02EBC0004871704724C70108C2
:10286000240200202DE9F05F0546DDE90ABA98460A
:1028700091460E461020FDF7FFFC354F7C6A002C78
:1028800061D0616918347962FDF704FD44F8186C71
:10289000A576002626766676666144F80CBC44E987
:1028A00005A90C9824F8080C24F8068CE677E808AB
:1028B000207705F00701012202FA00F0E176A07707
:1028C0008A4062776660E660A6602662A6626662FB
:1028D00020A0E662C4E90C600020183C04EB8001F3
:1028E000401C0E6510F0FF00F8D02046FFF716FCE4
:1028F0001020FDF7C1FC184941F82540FDF7CAFC3E
:102900002046FFF75DFC1020FDF7B6FC0146F86A93
:10291000C4E9050600B18461FC6294F83600BA7916
:102920001043B8710A4A14F8340F34326478135CD7
:1029300023431354387A401C38720846FDF7AAFC2A
:102940000020BDE8F09FFDF7A5FC4220F9E700005C
:10295000240200203F000000E0AD0020054C1020C4
:10296000FDF78AFCE169491CE161FDF793FCFFF783
:10297000C6FCF4E724020020044810B50068FFF705
:10298000E9FCBDE81040FF20FFF71CBC440200201A
:10299000214C02E0C820FFF799FD60780028F9D0AB
:1029A000642660690025B0FBF6F0606118B92570F7
:1029B000FF20FFF73FFD1020FDF75EFC61696422F8
:1029C0005143E161FDF766FC0120FFF77FFD102018
:1029D000FDF752FCE561FDF75DFC6420FFF776FD35
:1029E0001020FDF749FCE169A161FDF753FCD4E932
:1029F0000501B1FBF0F040B2C0F1640040B2002824
:102A000001DB207003E0B1FBF6F025706061FFF799
:102A1000A2FC00F003F8D7E7240200207CB50C4D9F
:102A2000002469462046FFF797FC58B955F8241052
:102A300041B1012906D0D1E9020200EB82004864CD
:102A400001988864641CE4B23F2CEAD97CBD000084
:102A5000E0AD0020D30707D0920705D5002200295A
:102A600002D004C0491EFAE770472DE9F05F044622
:102A70004FF0060A4FF0020B4FF4806841E1B0F8C6
:102A8000441011F00F0628D030F826905FEA094173
:102A900077D530F8261040F68F72114041F0800152
:102AA00020F8261004EB461595F8340105F59475C9
:102AB000002820687DD0297830F82120B0F85030E7
:102AC000520477D50BEBC1015A1808EB4201415A69
:102AD0008F05BF0D6FD02A89C9E0C9062ED40188A1
:102AE00048F60F72114041F400410180206804F162
:102AF0002805B0F850202B780BEBC3010A4408EBF3
:102B00004201405AC0F309006064E16B0844E0638D
:102B100000212046FEF7CEFF94F824000028ADD017
:102B2000A8690028AAD194F82400216840F0800008
:102B3000A1F84C00002084F82400E2E0018804F5AC
:102B400094750A051ED5B0F850202B780AEBC30106
:102B50000A4408EB4201405A04F50C71C0F3090322
:102B6000EB61EA88206801F032F82068018840F6BD
:102B70008F72114041F0800101802046FFF73CF93F
:102B8000BFE098E0090455D5018840F68F721140E6
:102B900041F0800101802068B0F850202B780AEBCA
:102BA000C3010A4408EB4201405A83059B0DEB61C7
:102BB00002E040E051E05EE00DD0696959B1EA8879
:102BC000206801F004F8E969686908446861002137
:102BD0002046FEF776FF2068B0F8501008442969B7
:102BE00000F20C4051B13E2910D84A08C90700D064
:102BF000521C4FF6FF7101EA82210FE0018821F497
:102C0000F8410180018841F4004107E04A09C90602
:102C100000D1521E4FF4004141EA82210180206818
:102C200001884BF68F72114081F4405148F28002C6
:102C30001143018065E0B0F850202B780AEBC30106
:102C40000A4408EB4201415A8F05BF0D1FD0EA88A4
:102C50003B46696900F0BBFF19E00AEBC1015A1855
:102C600008EB4201415A8F05BF0D04D06A893B46EB
:102C7000696900F0ACFF2978206830F8212048F617
:102C80008F731A4048F2C0031A4320F82120E869E4
:102C90003844E8616869C2196A61AB6913B128698F
:102CA000B84204D929782046FEF70BFF03E02978C3
:102CB0002046FEF768FF5FEA096022D5216804EB31
:102CC000461031F8262048F60F731A4042F40042AD
:102CD00021F826202168B1F8503090F828500BEBED
:102CE000C502134408EB4302895AC1F30901416448
:102CF000C26B0A44C263036CE9B2204653B1FEF7CB
:102D00008EFF2068B0F8441009043FF5B8AE0020EB
:102D1000BDE8F09FFEF7CEFEF3E700003EB5FFF7FB
:102D20005BF910F0E1FA144C2068C00705D010F0F0
:102D3000DBFA206820F001002060206880070FD5B2
:102D4000206820F0020020600C48017883784278E7
:102D50008DE80E00C3798279818809A0FDF7B2FB66
:102D6000206820F00400206020688006FCD5BDE8C3
:102D70003E40FFF73DB9000004280040880A0020CB
:102D8000416C61726D2054696D653A25642D25642E
:102D90002D25642025643A25643A25640A00000044
:102DA00003480078012801D1FFF717BC70470000E5
:102DB0002B02002010B50A4C2068C0070BD0094830
:102DC00000698047064900201431086004494FF427
:102DD0007A701C310860206820F00100206010BD6E
:102DE000100800402801002070B5374E3068374C7D
:102DF00081B2C80714D02078020611D520F0100047
:102E00002070020702D140F040002070C0B200F0F4
:102E10000F020E2A01D2401C01E000F07000207069
:102E200011F0040F4FF000054BD00221284811F09B
:102E300087FC2549103148B1086840F0200008603F
:102E4000081D0560207840F0100039E01E48283049
:102E500000680A6880B222F020020A602178CA065F
:102E60002BD50A064FF4F9731ED5A0F22D129A4203
:102E700002D86068400808E0A0F27952B2F5C77F36
:102E800005D86068400840F00040606015E040F2FE
:102E9000E732A0F2D17090420FD26078401C60708F
:102EA00001F0F000207008E0A0F5805069389842E9
:102EB00003D841F0800020706570207820F0100069
:102EC0002070356070BD0000100C00404C000020E8
:102ED0000008014070B5FFF77FF8144800688006CD
:102EE0001CD51248001D0068114AC1B210880304A5
:102EF00014D444044FF0000304D50A290DD140F442
:102F0000004011E00D290DD0C0F30D04094D401C07
:102F100080B229551080C72800D91380BDE87040C1
:102F2000FFF766B840F480401080F7E700380140B2
:102F300034000020920A002010B5D0F8B422526864
:102F40009047002010BD134610B50A46002100F03E
:102F50006FF9002010BD134610B50A46002100F09D
:102F6000F8F9002010BD10B50446802100F0E1F909
:102F70002046BDE81040002100F0DBB910B5052166
:102F80000023C0F894121A46194600F051F90020A7
:102F900010BD10B50223C261C0F89432026213461C
:102FA0000A46002100F0D5F9002010BD10B504211B
:102FB0000023C0F894121A46194600F0CAF90020FE
:102FC00010BDF8B504460020ADF8000048880D4655
:102FD000010A082948D2DFE801F0470409174747EA
:102FE0003D45D4F8B012207C0A6819E0207C022606
:102FF0000028D4F8B40205D0C16A68468847014663
:1030000046703EE0816AF8E7C0B206282CD2DFE8BD
:1030100000F0030B1115191DD4F8B002426806E048
:103020006946904701462CE0D4F8B0028268DAB1D4
:10303000207CF5E7D4F8B002C268F8E7D4F8B00213
:103040000269F4E7D4F8B0024269F0E7D4F8B002BC
:103050008269ECE7207C38B9D4F8B402416B684649
:103060008847DFE7207C20B129462046FFF77BFF19
:10307000F8BDD4F8B402016B6846884701460720C2
:103080004870BDF8000048B1EA8852B1824200D9C8
:103090000246ADF800202046FFF77BFFE8880028B5
:1030A000E6D12046FFF782FFF8BD10B5D0F8C00288
:1030B000FEF70FFD002010BD2DE9F0411746044634
:1030C00051B1D4F8B40242691AB194F89C020328B1
:1030D00051D00220BDE8F081D4F89432002504F1EB
:1030E0001400022B03D0042B3AD0C3B33CE0D0E948
:1030F00003639E4207D9F11AC1608AB2394620465D
:10310000FFF729FF12E08068B0FBF3F103FB110128
:1031100099B9984211D3D4F8981288420DD200225E
:1031200011462046FFF717FFC4F8985200231A46AD
:103130001946204600F07CF816E0D4F8B402C168C5
:1031400029B194F89C02032801D1204688478021A8
:10315000204600F0EEF82046FFF710FF04E0FFE7FE
:103160008021204600F0E5F894F8A002012804D15F
:1031700084F8A05201E0204690470020AAE770B5ED
:103180001546044649B1D4F8B40282691AB194F8DC
:103190009C02032830D0022070BDD4F8941204F5AC
:1031A000AA70032902D005291ED027E0D0E90331F7
:1031B0008B420BD95B1AC3600846834200D3034697
:1031C0009AB229462046FFF7BEFE17E0D4F8B402B3
:1031D000016929B194F89C02032801D1204688474F
:1031E0002046FFF7E3FE09E000200146C4F8940200
:1031F000204600F09EF801E020469047002070BD78
:103200000A06D0F8C00201F07F0100EB411002D5A0
:1032100090F82A00704790F82A01704710B51C46B4
:103220001346D0F8C0022246FEF77FFC002010BDF6
:1032300010B5D0F8C002FEF7A6FC002010BD70B596
:103240000022044640231146FFF7E8FF40260125EF
:10325000C4F864613346002280212046C4F85851E6
:10326000FFF7DCFF6662A56184F89C520020C4F879
:1032700094026060C4F8A402D4F8B80228B1D4F86B
:10328000B4020021426820469047002070BD90F8AB
:103290009C12042903D190F89D1280F89C12002002
:1032A000704710B590F89C12032904D1D0F8B412DD
:1032B000C96901B18847002010BD01740020704722
:1032C000044B10B501221A70D0F8C002FEF780FD41
:1032D000002010BD8002002070B5044600F52A7061
:1032E000054600F03DF80120C4F89402B4F8AE029F
:1032F000C4F8980294F8A82212F01F000AD00128FE
:103300000DD0022810D002F08001204600F011F804
:10331000002070BD2946204600F084F8F8E72946D1
:10332000204600F0B0F9F3E72946204600F003F903
:10333000EEE710B5D0F8C002FEF73CFC002010BD4F
:1033400090F89C1280F89D12042180F89C120020B5
:10335000704710B5D0F8C002FEF761FC002010BD28
:103360000A7802704A7842708A78CB7802EB03229E
:1033700042800A794B7902EB032282808A79C979EB
:1033800002EB0121C180704710B5D0F8B4220224AD
:103390001AB11268904700B90024204610BD000001
:1033A00070B50E461E4D897804462970012931D822
:1033B00094F89C0202280BD003280FD031462046F7
:1033C000FFF7D1FD29782046BDE87040FFF7B4BD76
:1033D000D9B10320616084F89C0209E071B1606892
:1033E000884212D0C1B22046FFF7A6FD297861605D
:1033F0002046FFF7C9FF02280CD006E0022084F81F
:103400009C0220466160FFF797FD2046BDE87040B2
:10341000FFF7CCBD31462046BDE87040FFF7A3BDA5
:103420007E0200202DE9F0410A78002712F06002A8
:1034300008D0202A01D0402A70D1D0F8B422926856
:1034400090476DE04A78002301260A2A66D2DFE819
:1034500002F0405D6557650805652C29FFF7B1FD51
:103460005EE004468888D8B9C888C8B948888028EA
:1034700016D200F07F0594F89C02032810D084F83F
:103480009E5229462046FFF71BFF2046FFF78EFD80
:103490001DB1022084F89C0242E084F89C623FE067
:1034A00020463BE0FFF77CFF3AE0CA88012A35D18D
:1034B00090F89C22012A04D0022A02D0032A2DD19E
:1034C00004E0012200F10801836016E00122011DE1
:1034D00013E090F89C22012A03D0022A01D0032A8B
:1034E0001CD1CA88022A19D1C660D0F8A41209B129
:1034F0000321C160022200F10C01FFF74AFD0FE039
:10350000498801290CD1C0F8A46211E090F89C22EE
:10351000012A08D0022A06D0032A04D0FFF723FD8F
:103520003846BDE8F08149880129F9D1C0F8A432B4
:10353000FFF73CFDF4E72DE9F0410A460446137815
:103540000027097913F060000AD0202801D0402814
:1035500050D1D4F8B40211468368204698478FE0D2
:10356000C3F34110012806D05078D0B301282AD0E7
:1035700003283FD107E0D4F8B402114683682046FF
:10358000BDE8F041184794F89C02022802D00328B5
:1035900072D10AE071B380296ED02046FFF7C9FED0
:1035A00080212046FFF7C5FE6AE0508838B931B166
:1035B000802904D0D08810B92046FFF7BAFE2046F3
:1035C000FFF7F4FC5CE094F89C020228E2D00328A8
:1035D00052D1508898BB4806F1D02046FFF765FDD0
:1035E000EDE7FFE794F89C020026022803D00328A9
:1035F00042D112E040E009B180293DD1080601F036
:103600007F0000EB800004EB800101D5143101E064
:1036100001F5AA7102220E602AE0080601F00F00EF
:1036200000EB800004EB80000AD5806920B301F034
:103630007F0000EB800004EB800514350BE01FE0F9
:10364000D0F85801C0B101F07F0000EB800004EB1E
:10365000800505F5AA7541B1802906D02046FFF7FF
:10366000CFFD10B10120286000E02E600222294623
:103670002046FFF78EFC03E011462046FFF773FC5F
:103680003846BDE8F08170B5054608780C4610F064
:10369000600203D0202A01D0402A16D195F89C223E
:1036A000012A03D0022A01D0032A0ED12079012851
:1036B0000BD8D5F8B402826828469047E1880143C8
:1036C00006D12846FFF772FC02E02846FFF74BFCC4
:1036D000002070BD2DE9F0470E78002530F8262037
:1036E00048F68F131A40CB78002B7DD0012B7CD06D
:1036F000022B02D0032B79D0012548F2800422430B
:1037000020F826200A7830F8223048F68F763340A9
:103710001343234320F822300B7B48F6BF724BF64D
:103720008F7948F2C00C4CF28007E3B30B789A46CD
:1037300030F8238048F2801308EA060848EA0308B4
:1037400020F82A80B0F8503091F80080034403EB51
:103750000813B1F8088028F00108A3F80084B0F835
:10376000503091F80080034403EB0813B1F80A804D
:1037700028F00108A3F808844B78002B0B7830F868
:1037800023804FEA48487DD0B8F1000F07DA30F8BF
:10379000238008EA060848EA070820F823800B7807
:1037A00030F8238000E02EE05FEA486807D530F863
:1037B000238008EA060848EA0C0820F823800B78E2
:1037C00030F823C00CEA060C4CEA070C20F823C0A2
:1037D000CB78012B0B7830F8236006EA02067DD007
:1037E00086F02002224302E004E009E005E020F830
:1037F0002320ACE042F400727FE742F4C0627CE731
:1038000042F4806279E74B7843B3B0F850300F78D8
:10381000034403EB0713CF8827F00107A3F80074D4
:103820000B7830F823707F0606D530F823703740C8
:1038300047EA0C0720F82370CB78012B06D00978D3
:1038400030F82130134083F0200285E0097830F809
:1038500021301340234320F8213080E0B0F850207D
:103860000B78024402EB0312CB8823F00103A2F889
:103870000834B0F850200B78024402EB031202F235
:103880000C4200E036E00B6963B13E2B12D84FEAE0
:10389000530CDB0701D00CF1010C4FF6FF7303EA68
:1038A0008C2311E0138823F4F8431380138843F426
:1038B000004309E04FEA531CDB0601D1ACF1010CD7
:1038C0004FF4004343EA8C2313800A7830F8223007
:1038D0005B0407D530F82230334000E034E03B434E
:1038E00020F82230097830F8212002EA090282F417
:1038F000405231E0B8F1000F07DA30F8238008EACF
:10390000060848EA070820F823800B7830F823706F
:103910007F0606D530F82370374047EA0C0720F8B9
:1039200023700B7830F82370374047EA0C0720F8F3
:1039300023700B7830F8236006EA090686F44056B7
:10394000264320F8236081E7264320F82360097886
:1039500030F8212002EA0902224320F821202846DB
:10396000BDE8F0870020704730B50A7BA2BB4A78DB
:1039700048F68F75002A0A7848F2800430F8223021
:1039800015D05B0607D530F822302B4048F2C00531
:103990002B4320F82230CA78012A1DD0097830F84C
:1039A000212048F6BF731A4082F0200211E05B0428
:1039B00007D530F822302B404CF280052B4320F8FD
:1039C0002230097830F821204BF68F731A4082F4A8
:1039D0004052224320F82120002030BD10B54A7803
:1039E0000978002A48F2800330F8212005D048F6F3
:1039F000BF74224082F0100204E04BF68F74224024
:103A000082F480521A4320F82120002010BDF0B526
:103A10000C46054691F801C00022097B2669A06981
:103A200048F28007BCF1010F04D0B0424FD9801B8F
:103A3000A0614EE0B04202D9801BA06101E00646C1
:103A4000A26169B1207835F820104906B5F8501008
:103A5000294401EB001012D5A0F80C64628911E032
:103A6000B3B2E2882846616900F0CCF8B5F850009E
:103A70002178284400EB0110A0F804641EE0A0F8AF
:103A800004642289B3B22846616900F0BBF860780B
:103A900048F68F7210B1012807D00FE0207835F872
:103AA0002010114048F2C00205E0207835F82010BF
:103AB00011404CF28002114325F82010207835F88F
:103AC000201048F6BF72114081F0300168E00646D0
:103AD000A2614FF6FF724FF4004381B3BCF1000FB7
:103AE00015D027E0018821F4F8410180018841F4D4
:103AF00000410AE03E2E3ED87108F30700D0491C71
:103B000002EA812101E043EA8121018040E0B5F829
:103B100050002178284400EB011000F204407EB1EF
:103B20003E2E15D871085FEAC67C00D0491C02EA17
:103B300081210180607810B1012821D028E00FE0B8
:103B4000018821F4F8410180018841F40041F0E747
:103B500071095FEAC66C00D1491E43EA8121E8E79A
:103B6000B5F850002178284400EB011000F20C4019
:103B7000002EBFD1B6E77109F206C4D1491EC2E7D3
:103B8000B5F850104819217800EB0110A0F80C642A
:103B9000207835F820104BF68F72114081F4405197
:103BA000394325F820100020F0BD000010B5FEF7C5
:103BB00013FA04484068FEF747F8BDE81040FEF7E6
:103BC00017BA000080020020B0F84400704710B51A
:103BD00000EB42005C0800F5806008D030F8042B50
:103BE00001F8012B120A01F8012B641EF6D1DA0745
:103BF00001D00088087010BD11B98021A0F84C10C8
:103C00000020704710B55B1C00EB42005B0800F51C
:103C1000806009D011F8012B11F8014B42EA04220F
:103C200020F8042B5B1EF5D110BD490050EAC120DD
:103C300018BF04204A0D18BF40F0010040F2FF7287
:103C4000B2EB515F08BF40F00200012808BF052019
:103C5000704730380A2801D2012070470020704791
:103C6000704700001CB52E4CA06940F01000A06108
:103C7000A06940F40070A061012000900190002331
:103C800003221021274810F089FDE06840F4C0604D
:103C9000E060E06820F4C060E060606820F44040CC
:103CA0006060606840F4004060601F48016821F473
:103CB0007021016001680160016821F48071016078
:103CC000001D016821F002010160016821F46021FA
:103CD0000160016841F460210160016841F48011D4
:103CE0000160016821F4006101600F4928310A6810
:103CF00022F470020A600A680A60016841F001015A
:103D00000160016841F00801016001680907FCD405
:103D1000016841F00401016001684907FCD41CBD41
:103D200000100240001001400424014010B5FFF7CC
:103D300099FF0348016841F40001016010BD0000D3
:103D400008240140C91CD0F88830002221F003016A
:103D50008B4206D35A1AC0F8882050F8842F114499
:103D600001601046704700002DE9FE430746334CC2
:103D7000334E15468846D00728D000200090207882
:103D8000A1884FEA500C0A1893B20CEBCC0000EB60
:103D90000C1260880CEBCC0C0244604492B280B2EE
:103DA0000CF040FE3088237880B20093CDE901709A
:103DB00058080201618800EBC000084480B2A18865
:103DC0000DF0CAFC39461FA0FCF77CFB680703D541
:103DD000394621A0FCF776FBA8072BD5308823A213
:103DE00081B220780090CDE90121214940084B881B
:103DF0000A8800EB4001C1EB40106188084480B2A2
:103E0000A1880DF0A9FC3088032381B22078CDE988
:103E10000001400800EB800101EBC00061884246D0
:103E200001EB400080B2A1880DF05CFC414611A07E
:103E3000FCF748FB0020BDE8FE83000020000020C6
:103E40003C0000200D0A436F70792046696C653A8A
:103E500025730D0A00000000436F707920466F6CD7
:103E60006465723A25730D0A000000002500000009
:103E70005A0B002046696C6520436F707965643A7F
:103E800025640D0A00000000024B588099801A70CA
:103E900070470000200000202DE9F04106460D4645
:103EA0004FF4167008F084F80746C82008F080F830
:103EB0000446B7B1ACB12A46314600F083F901227D
:103EC0002146384604F066F90546384603F012F8F4
:103ED000384608F066F8204608F063F82846BDE842
:103EE000F081384608F05DF8204608F05AF80120C5
:103EF000F5E70000FEB50746134D144E0C46C80703
:103F000007D00220009000212B793288084600F06B
:103F10005DF8A00709D50120009070882B793288C0
:103F2000C01A81B2002000F051F860070BD5E87884
:103F30004FF6FF71CDE90010029700212B793288EE
:103F4000084608F0ABFAFEBD98B300205A0B0020DB
:103F500030B5562303700A23012A1ED02E24022ACC
:103F600023D06422B1FBF2F2B2FBF3F503FB15227E
:103F700030324270B1FBF3F28470B2FBF3F403FB16
:103F800014223032C270B1FBF3F203FB1211303154
:103F9000017105210022425430BDB1FBF3F203FB55
:103FA0001211303141700221F4E7B1FBF3F2B2FBA0
:103FB000F3F503FB152230324270B1FBF3F203FB41
:103FC000121184703031C1700421E3E72DE9F84308
:103FD000814647F67C501E465D08009090460F468D
:103FE000089C2B46484607F027FF45F258400090B2
:103FF000781981B22B464246484607F01DFFE0077C
:1040000040F2CF1505D02B4642463946484607F0C8
:104010000DFEA00707D5B819401E81B22B464246B7
:10402000484607F003FE600705D52B463246394661
:10403000484607F0D9FE20070BD509EB080001B070
:104040002B4642463946BDE8F043401E80B207F099
:10405000CBBEBDE8F88300002DE9FC5F07460024D5
:10406000019091468B46500700D0012000EBD9000B
:1040700058434FF00008DFF85CA0009025E00C9852
:10408000002510F80860DAF80D30300601D50D9AD9
:1040900000E00E9A59463846984770067F1C641C0B
:1040A000060EE4B2BFB24C4506D10BF1010000246C
:1040B0001FFA80FB019F03E06D1CADB2082DE2D317
:1040C00008F101001FFA80F800984045D7D8BDE8F4
:1040D000FC9F000098B300200149886070470000F1
:1040E000200000202DE9F0412E4E074600253168C2
:1040F000FFF7D2FE040051D1012538467168FFF761
:10410000CBFE04004AD102253846B168FFF7C4FE51
:10411000040043D103253846F168FFF7BDFE0400D3
:104120003CD1042538463169FFF7B6FE040035D18D
:10413000052538467169FFF7AFFE04002ED106252C
:104140003846B169FFF7A8FE040027D10725384695
:10415000F169FFF7A1FE040020D108253846316A35
:10416000FFF79AFE040019D109253846716AFFF756
:1041700093FE040012D10A253846B16AFFF78CFE7F
:1041800004000BD10B253846F16AFFF785FE0400C9
:1041900004D10C2104A0FCF795F900252819C0B220
:1041A000BDE8F081748C01080D0A746F74616C2095
:1041B00073797374656D2066696C65733A25640D57
:1041C0000A00000070B50D4604461146FCF75EFB80
:1041D0002978217070BD00000149002008707047E7
:1041E00098B300202DE9FF478046002002900390FD
:1041F0000E46642007F0DCFE8246642007F0D8FEFD
:104200008146642007F0D4FE050039D0374C324691
:1042100037A15046236BFCF761F9324634A148467A
:10422000636BFCF75BF9324631A12846E36BFCF780
:1042300055F9504602F0B2FD0299084402904846F2
:1042400002F0ACFD029908440290284602F0A6FD57
:104250000299014428A00291FCF734F9A06B03F005
:1042600005F9012603AFCDE9007602AB5146404681
:10427000A26B02F0B7FC80B1FF2828D0012429E00E
:10428000504607F08EFE484607F08BFE284607F0A2
:1042900088FE012004B0BDE8F087CDE9007602ABCE
:1042A00049464046A26B02F09DFC18B1FF280ED093
:1042B00002240FE0CDE9007602AB29464046226C8D
:1042C00002F090FC28B1FF2801D0032402E0FF2473
:1042D00000E00024504607F064FE484607F061FE07
:1042E000284607F05EFE2046D4E70000748C0108E3
:1042F0002573257300000000746F7473697A653A42
:1043000025640D0A0000000010B5FF24204600F0CF
:1043100021F855280AD05521204600F04CF8FF20FE
:1043200000F018F8552801D0012010BD002010BD64
:1043300008F0A2B970B515460E46044606E02046C0
:10434000641CA4B200F006F806F8010B6D1EADB2B5
:10435000F5D270BD10B5044608F032FA200AA0214B
:1043600001EB4000C0B208F0FFF908F06FFAE0B2CC
:1043700008F0FAF908F06AFA08F022FAA12008F029
:10438000F3F908F063FA002008F0BAF9044608F0DF
:104390003DFA204610BD70B514460D46064606E0AF
:1043A0002978304600F007F8761CB6B26D1C641E02
:1043B000A4B2F5D270BD70B50D46044608F000FAFF
:1043C000200AA02101EB4000C0B208F0CDF908F0AE
:1043D0003DFAE0B208F0C8F908F038FA284608F0CB
:1043E000C3F908F033FA08F011FABDE870400A206A
:1043F00001F00ABB2DE9F0470446007B894600F036
:104400001F060120D4E90015B040276E401E4FF072
:104410000008074023E094F86400A8B949B9A568EA
:10442000D4F88C304FF4806229462046984701002A
:104430000CD015F8010B491EB8F1000F0AD04FF04F
:10444000000808B184F86400FF2005E06FF0010067
:10445000BDE8F087FF280FD040EA072708364E4511
:10446000D9D3A6EB090027662073C4E9001500F034
:104470001F0027FA00F0EBE74FF00108EFE72DE906
:10448000F04F002350F8404B4FF4B55C50F8402BF0
:104490004FF4B5580768066CE519E41B971B3244C6
:1044A00007FB0CF7C2EB273605EB0209A5EB020B65
:1044B00006EB040A50F860CC056EA61B50F8207C71
:1044C000ACEB0504026AAC44D51B3A44ACEB0207E2
:1044D00007FB08F7624404EB050C41F690580CFB0F
:1044E00008FC41F2511804FB08F44FEA2C3C42F658
:1044F000CF1805FB08F5ACEB2535ACEB2434AD1A31
:1045000009EB020C40F880CCA9EB020202660AEB30
:10451000050240F8602CC5EB2737AAEB05020264C0
:10452000F21940F8402CF21BE41B02620BEB040270
:1045300040F8202CABEB04025B1C40F87C29082BD4
:10454000A0DB002320384FF4B55850F8082B5B1C33
:1045500050F8085B02F5004250F8106B50F808CC98
:104560009419971BA5EB0C024FF4B5567243161322
:104570000CEB0502B51A05EB070AA7EB0509A6180F
:10458000A4EB020B50F8045C50F81CCC50F80C2C37
:1045900050F8147CACEB0504AC44D51B3A44ACEBAE
:1045A000020707FB08F7624404EB050C41F690583C
:1045B0000CFB08FC41F2511804FB08F44FEA2C3CB8
:1045C00042F6CF1805FB08F5ACEB2535ACEB2434EF
:1045D000AD1A06EB020C4FEA2C2C21F80ECBB21AC6
:1045E000121221F80C290AEB0502121221F8022BF3
:1045F000AAEB0502C5EB273712120A8109EB070265
:10460000121221F8042BA9EB07021212E41B4A80B4
:104610000BEB0402121221F8022CABEB0402121273
:1046200021F8082B082B8EDBBDE8F08F2DE9F04F29
:1046300095B08146DDE91E784FF000001E008B46E4
:10464000044612900DD067B163490BEB0600401E83
:104650000B88984205DCD019401E13904988884287
:1046600003DD292015B0BDE8F08F4FF400600EF097
:10467000A5FC050045D04FF416700EF09FFC11907C
:10468000F0B34FF0420A5246002168460EF01CF982
:104690002820CDF80E00CDF81260CDF8167001205C
:1046A000ADF81A001020ADF81C000320CDF81E0054
:1046B00007FB06F00001C11700EB5170C010CDF8E8
:1046C000220044F64250ADF80000DDF822004230EE
:1046D000CDF80200CDF80AA04FF47840CDF83600AE
:1046E0004FF4FC60CDF83A001F20CDF83E00B8F141
:1046F000010F0CD0B8F1000F10D0042C0ED013E035
:1047000001E01120AEE728460EF054FCF9E7032241
:104710004946119803F03EFD0446EEE7062249465D
:10472000119803F037FD04469DF812004FF6FF790B
:10473000C0070AD0DDF812004000C11700EB9170ED
:1047400080108000001D80B203E0DDF8121009EA3D
:1047500041008046C4BB12AB52466946119804F032
:104760005EF90446139887B227E000245E46DFF81E
:104770006CA011E0DDF81200A04207DDDAF800209D
:1047800039463046904725F8140001E025F814908A
:10479000641C761CA4B2B6B2B4EB580FEAD1DDF8B3
:1047A000160012AB401ECDF816004246294611985D
:1047B00004F035F97F1E0446BFB2DDF8160000286C
:1047C000D3D1119802F096FB28460EF0F3FB119816
:1047D0000EF0F0FB204645E75A0B002064A60020AF
:1047E00070B50446807A002500F00302022A02D048
:1047F0000A7B52BB01E0002070BD2288CB889A4220
:104800002AD2E68832449A4226D962888B889A4214
:1048100022D2A68832449A421ED9010611D440F011
:104820004000A072617A090613D500F0030120F060
:104830000300A072012909D1A072204600F0ABF854
:104840000125A07A40F08000A0721FE040F0010036
:10485000F2E720F00300F9E700F07F0000F0030228
:10486000A072012A12D1497BC90705D00020A0728D
:10487000204600F090F809E0617A090606D420F09D
:104880000300A072204600F086F80125284670BD7E
:104890002DE9F0471F46DDE908A816460D4681467A
:1048A000062A01D3062F02D20020BDE8F08721207E
:1048B00007F07EFB041EF8D02580A4F80290A680A5
:1048C000E78084F808A084F809800025A572C4F860
:1048D0000B501020E07303202074A4F81150A4F8AA
:1048E0001350C4F8195008F00F00C4F81D500228E6
:1048F00038D304D0032819D0042835D121E008206A
:1049000007F056FBC4F8150040B30580D4F8151025
:104910004DF2BB604880D4F8151048F252408880B0
:10492000D4F8151045F2CD20C8801DE07E437000FC
:1049300007F03EFBC4F8150080B1204600F030FAC5
:1049400012E0042007F034FBC4F8150030B14FF634
:10495000FF710180D4F81500458005E0204600F085
:1049600005F8A1E7C4F8155020469EE710B50400ED
:1049700010D0607A00F00F00032802D1204600F02A
:1049800037FAD4F8150007F00CFB2046BDE81040BC
:1049900007F007BB10BD10B504000CD0607A00F022
:1049A0000F00052807D2DFE800F003070B0F130004
:1049B000204600F0C8F810BD204600F084F810BD75
:1049C000204600F009F810BD204600F083F910BD24
:1049D000204600F0ABF910BD2DE9FF41044600264A
:1049E000217CA28835463046B1EB520F0BD8E288C5
:1049F000B1EB520F07D8A17A11F0030705D0012FB0
:104A000009D0022F19D1BDE8FF81D4F815004688DE
:104A10008588C08811E0D4F815004FF6FF78102281
:104A20008088414606F028FF06460546D4F8150062
:104A300010224146C08806F01FFF217C0122CDE9EB
:104A40000250CDE90012E388A2882188608806F030
:104A500067FFD4F81500217C002200880091CDE981
:104A600001200390E388A2882188608806F058FF1F
:104A7000207CA188424201EB42018AB26188334620
:104A80000844218880B2491C89B207F0CFF8D4F8D5
:104A90000B20E17B77B1B4F813008DE80700208884
:104AA000E388401C81B26088A288401C80B207F075
:104AB000F5FCA8E7B4F811008DE80700E388A288A8
:104AC00021886088F3E73EB50446807A4FF0000500
:104AD00010F0030003D0012811D0022832D1B4F81D
:104AE0001100012806D00090E388A2882188608800
:104AF00007F0A2F9E088CDE9000502951BE0B4F8C3
:104B00001300012806D00090E388A28821886088DD
:104B100007F092F9D4F81D0038B1E188CDE900150D
:104B20000295A388228861880AE0E08890224FF6E7
:104B3000FF718DE80700A38822886188D4F81900E6
:104B40000DF0D8FA3EBD2DE9FE430446807A00F010
:104B500003054EF65D700090E088001F83B2A088C8
:104B6000001F82B22088801C81B26088801C80B2C5
:104B700007F062F948F231461DB1012D7AD0022DBD
:104B800076D14FF6FF77E288218860883B4607F0B0
:104B90002BF9A288218860883B4607F047F8E08817
:104BA0004DF6FC68801E82B220884346401C81B2CC
:104BB0006088401C80B207F017F9A0884346801E29
:104BC00082B22088401C81B26088401C80B207F00D
:104BD0002DF86088A188E2880844401E80B22188B0
:104BE000334607F001F92088E188A2880844401E76
:104BF00081B26088334607F019F86088A1884AF2CC
:104C000035560844E188801E891E8AB2218880B208
:104C1000491C89B2334607F0E7F82088E18833461B
:104C20000844801E81B2A088801E82B26088401C29
:104C300080B206F0FBFFF5B1D4F80B10E07B0097D3
:104C4000CDE901012088E388401C81B26088A288F8
:104C5000401C80B207F022FCD4F80B10E07B0096D9
:104C6000CDE90101E388A2882188608807F016FC5D
:104C7000BDE8FE8307E0B4F81100D4F80B20E17B17
:104C80008DE80700EEE700200090E388A2882188E5
:104C9000608807F085F80096E088801E83B2A088BF
:104CA000801E82B22088401C81B26088401C80B285
:104CB00007F076F8B4F81300D4F80B20E17B8DE808
:104CC00007002088E388401C81B26088A288401CCD
:104CD00080B2CBE73EB50446807A10F0030016D0D0
:104CE000012813D1204600F083F8B4F81300D4F85B
:104CF0000B20E17B8DE807002088E388401C81B20F
:104D00006088A288401C80B207F0C8FB3EBD2046E8
:104D100000F06EF8B4F81100D4F80B20E17B8DE8B8
:104D20000700E388A28821886088EDE73EB5044645
:104D3000807A10F003001DD001281AD1D4F8150094
:104D400040880090E388A2882188608807F074F882
:104D5000B4F81300D4F80B20E17B8DE8070020881D
:104D6000E388401C81B26088A288401C80B207F0B2
:104D700095FB3EBDD4F8150000880090E388A2881A
:104D80002188608807F058F8B4F81100D4F80B2097
:104D9000E17B8DE80700E388A28821886088E6E748
:104DA0002DE9F041044600260788DFF8408015E031
:104DB00065880CE0D8F80920394628469047D4F891
:104DC000151021F81600761C6D1CB6B2ADB26088C5
:104DD000A1880844A842EDD87F1CBFB22088E18892
:104DE0000844B842E4D8BDE8F081000098B3002040
:104DF0002DE9F041044600260788DFF8408015E0E1
:104E000065880CE0D4F81500D8F80D30394630F834
:104E1000162028469847761C6D1CB6B2ADB2608845
:104E2000A1880844A842EDD87F1CBFB22088E18841
:104E30000844B842E4D8BDE8F081000098B30020EF
:104E40002DE9F0470746406B891E00EB1136C1F390
:104E5000C80501F007014FF0010A0AFA01F098466F
:104E60009146C4B23146761C38460DF091FC10B123
:104E70000120BDE8F08752464FF40073791991F88C
:104E80003C0010EA040C01D04FF0010CC44501D1E4
:104E90000220EEE7604081F83C00B9F10100FA70B1
:104EA0008146E6D0600010F0FF04E7D101246D1CBC
:104EB0009D42E3D30025D5E770B504460020E0709D
:104EC000401EA06320460DF063FC08B1042070BDB5
:104ED00004F23A200CF093FD4AF655260546B042FE
:104EE00006D10B222BA104F13C00FBF7A3FC40B13F
:104EF00094F83C00EB2806D0E92804D0E82802D03A
:104F000041E0012070BDB54207D1082224A104F17F
:104F10008E00FBF78FFC0028F4D004F147000CF062
:104F20006EFD94F84910421E10422CD14FF40072CD
:104F3000904228D3904226D829B3481E014222D15C
:104F400004F14A000CF05BFDE8B194F84C00401EFF
:104F5000012818D804F14D000CF051FD98B104F16E
:104F60004F000CF04CFD802806D204F15C000CF0E0
:104F700010FDB0F5803F06D304F152000CF03FFD68
:104F800008B1002070BDB54201D1022070BD0320E0
:104F900070BD0000EB76904558464154202020001B
:104FA00046415433322020200000000070B51546E1
:104FB0000168046D680A4A8940EAC350590A00230F
:104FC000241DFBF7E4F902CC21B1884204D3401A36
:104FD000241DF8E7002070BD2168084470BDC26937
:104FE000891E921E8A4201D800207047026B4089B8
:104FF00000FB0120704700002DE9F05F81468846E4
:1050000001F11A000CF0FBFC88BB98F800000127A6
:1050100000F03F00401E00EB8001DFF85CA001EBD8
:10502000C00400254FF6FF7B1AF8051001EB0800BD
:105030000CF0E5FC06466FB1FF2C18D803F096FE85
:10504000074639F81400641C03F090FE87420ED125
:10505000374601E05E450AD16D1C0D2DE4D398F86A
:105060000000400606D52FB139F8140010B1002019
:10507000BDE8F09F0120FBE75CBE01082DE9F04789
:1050800005685FEA010807462BD04146384605F01F
:105090000FFB022846D3411C45D0E969814242D822
:1050A0004646A86900283ED028784FF0FF390428EA
:1050B0001ED046455FD1E869741CA04200D8022486
:1050C0002146384605F0F4FA01282CD0411C2AD09C
:1050D00080B3686902284ED3E96981424BD90646FC
:1050E00049E06E6916B1E869B042DAD80126D8E71E
:1050F00001223146284604F0C1FE040062D0601C43
:1051000060D001231A4621462846FFF799FE02285F
:1051100008D0012809D0B8F1000F08D0F979022988
:1051200009D010E00120BDE8F0874846FBE70221E6
:10513000F97143E01EE0711C8C423FD0B968711ACE
:10514000B9610321F97108F101018C4206D1F969B5
:1051500009B1491C00E00221F9612FE0F86901263C
:1051600000B9FE6122464146384604F06EFE30BB6F
:10517000FE6129E0A4B93446E869641CA04202D863
:105180000224022E0AD32146384605F091FA38B19E
:105190000128C8D0411CC6D0B442EDD10020C2E7DE
:1051A0004A46214628460DF00DFF40B9B8F10000EF
:1051B0000AD00146224628460DF004FF20B10128FE
:1051C0000FD001242046AEE76C61D5E90601891EA7
:1051D000884201D8401EA861287940F0010028715A
:1051E000F0E74C46EEE72DE9F74F84B00C46D5E0EA
:1051F000112854D3A0F1110814F8010B10F0EE0F90
:105200004DD14FEA101900F00F00019010210498C1
:10521000FEF798FD06007ED00199049800EBC101CD
:1052200001EB890B00200746CBF8206014F8011B26
:105230003154401C0F441028F8D379000498FEF72D
:1052400081FD5FEA000A66D0002001460A464FF65B
:10525000FF75CBF830A0735C04E02AF81200401C04
:1052600080B2521C5B1EF8D2491C05EA400010298E
:10527000F1D3B84513D3A8EB07000690394604983C
:10528000FEF760FD050060D00020CBF840500CE038
:1052900014F8011BB9F1000F05D10B2903D9062021
:1052A00007B0BDE8F08F2954401CB842F0D34FF04E
:1052B000000BCDF800B0B9F1000F12D04FF4006729
:1052C00039460498FEF73EFD5FEA000B3DD0019A97
:1052D0000499584601EB8201FF22C1F86CB03946AF
:1052E0000FE04FF4806739460498FEF72BFD0090DD
:1052F00088B1019A049901EB8201FF22486739467F
:105300000098FBF789FB00200146775C87B3C1F169
:105310000903012200E018E002FA03FE02933AF8C2
:105320001020029B15F800C09A40C2F30902B9F19F
:10533000000F13D04FF4807303EB01234CEA030CEE
:1053400073461FFA8CFC401C05E00320A8E72BF8ED
:1053500012C0521C5B1E002BF9D112E0102303EB8C
:1053600001134CEA030C73460CF0FF0C401C06E0E2
:1053700009E0DDF8008008F802C0521C5B1E002B1B
:10538000F7D17F1ECBD1491C0A29BED3019A0499BB
:1053900001EB420202EB090181F865000698002842
:1053A0007FF426AF7CE700002DE9F34F81B0086859
:1053B000009001980E46002400684FF48037D0F822
:1053C0000CA0684610F01EFA411C3AD0B84203D334
:1053D000020C2AF81420641C85B2202D1CD32F2D1A
:1053E00010D05C2D0ED0802D04D229466DA0FBF785
:1053F00005FA30BBFF2C24D22AF81450641CE0E7D5
:10540000491C0091009908782F28F9D05C28F7D022
:1054100008780025202800D204250098306008E094
:105420000AEB440030F8020C202801D02E2802D1CB
:10543000641E002CF4D100212AF814100CB10027AE
:1054400003E00620BDE8FE8F7F1C3AF817002028F5
:10545000FAD01FB9BAF800002E2803D145F0030591
:1054600000E0641E2CB10AEB440030F8020C2E2838
:10547000F7D1019820220B214030FBF7CDFA4FF0F5
:105480000009C8464FF0080B3AF817607F1C06B3B6
:10549000202E03D02E2E04D1A74202D045F00305C2
:1054A000F2E7D84501D2A74219D1BBF10B0F0ED0BC
:1054B000A74201D045F003050BD84FEA8960274683
:1054C0004FF008084FF00B0B4FEA1069DCE745F08E
:1054D0000305019890F84000E5283DD040E0802E7B
:1054E00009D345F00205304603F040FC4FF46A71E1
:1054F00003F004FC0646FF2E0FD9ABF101008045F6
:1055000003D345F00305D846BEE70198320A40446C
:1055100008F1010880F8402017E026B1314624A0A8
:10552000FBF76CF918B15F2645F003050DE0A6F115
:105530004100192801D849F00209A6F16100192893
:1055400003D8203E49F00109B6B20198404408F161
:10555000010880F8406097E70198052180F8401025
:10556000BBF1080F03D14FEA89604FEA1069C9F314
:105570008100032803D06FEA0900800701D145F0BC
:105580000205A80709D45FEAC97001D045F01005EB
:105590005FEA497001D545F00805019880F84B5045
:1055A00000204FE72A3A3C3E7C223F7F000000006B
:1055B0002B2C3B3D5B5D00002DE9FF4F81B09B46EE
:1055C0006A460121019800F0D4FD002872D1082616
:1055D0004FF03F08F201DDF8009003E0700010F09A
:1055E000FF0606D006FB08F1B9FBF1F09042F5D8B2
:1055F00006B9FF264FF400715846FBF715FA0BF574
:10560000DF744FF0000A454658E0029850F82A70BF
:10561000642F08D801D14F4605E04FF06401B9FB73
:10562000F1F007FB00F705EB0700484501D8A84259
:1056300001D2A9EB0507E7B3294604F108000EF0F3
:1056400003FE394604F10C000EF0FEFDB5FBF8F147
:10565000B1FBF6F303982071B5FBF8FC08FB06F2EA
:1056600006FB1313B5FBF2F008FB1C516370C0235B
:1056700003EA900C491C4CEA010C84F802C03D443A
:10568000691EE070B1FBF2F0B1FBF8F2B2FBF6F785
:10569000B1FBF8FC06FB172708FB1C1103EA90027C
:1056A000491C67710A43A271E0710AF1010A1034C2
:1056B00001E006E013E0BAF1040F02D20DB14D454E
:1056C000A3D34AF655210BF5FF700EF0EAFD012336
:1056D00000225946019800F0A2FD002800D00120C8
:1056E00005B0BDE8F08F2DE9F05F89460646402100
:1056F000FBF79AF9852030700025C020402486F8F9
:105700002000A8460127AA464FF0C10B06F804B0B6
:10571000641C06F804A0641C27B139F815700FB199
:105720006D1CEDB2301939460EF0BBFDA41CE0062D
:10573000F2D108F1010000F0FF0839F81500002847
:10574000E4D186F8235008F101007070484612F049
:1057500035F9014606F12400BDE8F05F0EF0A1BD69
:1057600010B5114C0022082120460EF0EEFF022059
:1057700000F06CF90122114620460EF0E6FF0220EF
:1057800000F064F90022012120460EF0DEFF022025
:1057900000F05CF90122082120460EF0D6FFBDE89A
:1057A0001040022000F052B9001001407CB50F48B3
:1057B000816941F010018161816941F010018161CD
:1057C00001240B4D009400232246214628460194D3
:1057D0000EF0E4FF012300941A46082128460194A4
:1057E0000EF0DCFFBDE87C4000F09CB800100240E9
:1057F0000010014010B50D4C0122082120460EF08A
:10580000A4FF022000F022F90122114620460EF0EA
:105810009CFF022000F01AF90022012120460EF020
:1058200094FFBDE81040022000F010B900100140C4
:105830002DE9F0410024144E074625466006040E6B
:105840000122114630460EF080FF022000F0FEF8E3
:10585000082130460EF074FF08B1641CE4B2002247
:10586000012130460EF071FF022000F0EFF86D1CB0
:10587000EDB2082DE2D327B1FFF772FF2046BDE855
:10588000F081FFF7B7FFF9E70010014070B5124E45
:1058900005460024EA09082130460EF056FF022092
:1058A00000F0D4F80122114630460EF04EFF0220DF
:1058B00000F0CCF80022012130460EF046FF6806C9
:1058C000641C050EE4B2082CE4D33046BDE87040F9
:1058D000012208210EF039BF0010014010B5104C14
:1058E0000122082120460EF030FF012211462046F9
:1058F0000EF02BFF022000F0A9F80022082120461C
:105900000EF023FF022000F0A1F800220121204622
:105910000EF01BFFBDE81040022000F097B8000019
:105920000010014010B50D4C0022082120460EF059
:105930000CFF022000F08AF80122114620460EF0EA
:1059400004FF022000F082F80122082120460EF018
:10595000FCFEBDE81040022000F078B800100140C5
:1059600070B5164E002425460122082130460EF05F
:10597000ECFE022000F06AF80122114630460EF0DB
:10598000E4FE07E0641CE4B2FA2C03D9FFF7CAFF77
:10599000012508E0022000F059F8082130460EF0F9
:1059A000CFFE0028EED10022012130460EF0CDFEC0
:1059B000022000F04BF8284670BD000000100140A6
:1059C000812803D3FE2801D80120704700207047AA
:1059D0004FF0E0210A6942F004020A61094A50606E
:1059E0000B6943F001030B616FF070434B614FF49F
:1059F0007A735843012313800A6942F002020A6154
:105A0000486170472C00002070B504460C480078AF
:105A100078B10C48007860B90B4D2888844203D3D4
:105A2000B4FBF0F0FCF752FD2888B4FBF0F100FB6A
:105A300011444FF47A706043BDE8704000F006B83E
:105A40002B020020260200202C0000202DE9F0412E
:105A50004FF0E02700247E690C49496800FB01F5FE
:105A6000FCF7F4FAB969B8698842FCD002D2A1EB1C
:105A7000000102E0A6EB000211440C440146AC42D6
:105A8000F1D3BDE8F041FCF7F7BA00002C0000208C
:105A90002DE9F0410F4604460021066800F010FB96
:105AA000E8B900253046A16B0CF072FEB8B9317828
:105AB0000429E16B097803D0E52905D021B107E07D
:105AC00041F3C011491C03D06D1CBD420AD000E057
:105AD00000250121204600F0FDF80028E2D004282E
